{
  "contractName": "Padrao",
  "abi": [
    {
      "inputs": [],
      "name": "nome",
      "outputs": [
        {
          "internalType": "string",
          "name": "",
          "type": "string"
        }
      ],
      "stateMutability": "view",
      "type": "function",
      "constant": true
    },
    {
      "inputs": [
        {
          "internalType": "string",
          "name": "_nome",
          "type": "string"
        }
      ],
      "name": "mudaNome",
      "outputs": [],
      "stateMutability": "nonpayable",
      "type": "function"
    }
  ],
  "bytecode": "0x608060405234801561001057600080fd5b506104a4806100206000396000f3fe608060405234801561001057600080fd5b50600436106100365760003560e01c80632deb124b1461003b578063e5e1bf8f14610059575b600080fd5b610043610075565b60405161005091906102b2565b60405180910390f35b610073600480360381019061006e9190610230565b610103565b005b6000805461008290610388565b80601f01602080910402602001604051908101604052809291908181526020018280546100ae90610388565b80156100fb5780601f106100d0576101008083540402835291602001916100fb565b820191906000526020600020905b8154815290600101906020018083116100de57829003601f168201915b505050505081565b806000908051906020019061011992919061011d565b5050565b82805461012990610388565b90600052602060002090601f01602090048101928261014b5760008555610192565b82601f1061016457805160ff1916838001178555610192565b82800160010185558215610192579182015b82811115610191578251825591602001919060010190610176565b5b50905061019f91906101a3565b5090565b5b808211156101bc5760008160009055506001016101a4565b5090565b60006101d36101ce846102f9565b6102d4565b9050828152602081018484840111156101ef576101ee61044e565b5b6101fa848285610346565b509392505050565b600082601f83011261021757610216610449565b5b81356102278482602086016101c0565b91505092915050565b60006020828403121561024657610245610458565b5b600082013567ffffffffffffffff81111561026457610263610453565b5b61027084828501610202565b91505092915050565b60006102848261032a565b61028e8185610335565b935061029e818560208601610355565b6102a78161045d565b840191505092915050565b600060208201905081810360008301526102cc8184610279565b905092915050565b60006102de6102ef565b90506102ea82826103ba565b919050565b6000604051905090565b600067ffffffffffffffff8211156103145761031361041a565b5b61031d8261045d565b9050602081019050919050565b600081519050919050565b600082825260208201905092915050565b82818337600083830152505050565b60005b83811015610373578082015181840152602081019050610358565b83811115610382576000848401525b50505050565b600060028204905060018216806103a057607f821691505b602082108114156103b4576103b36103eb565b5b50919050565b6103c38261045d565b810181811067ffffffffffffffff821117156103e2576103e161041a565b5b80604052505050565b7f4e487b7100000000000000000000000000000000000000000000000000000000600052602260045260246000fd5b7f4e487b7100000000000000000000000000000000000000000000000000000000600052604160045260246000fd5b600080fd5b600080fd5b600080fd5b600080fd5b6000601f19601f830116905091905056fea26469706673582212201dfba00ce07da0fccb0aa5dacccfc2c4caed2f41c88f9c4413fd4b587760a84c64736f6c63430008070033",
  "immutableReferences": {},
  "source": "pragma solidity ^0.8.7;\r\n\r\ncontract Padrao {\r\n\r\n    string public nome;\r\n\r\n    function mudaNome(string memory _nome) public {\r\n        nome = _nome;\r\n    }\r\n\r\n}",
  "sourcePath": "C:\\Users\\Matheus\\Truffle\\main\\contracts\\Padrao.sol",
  "compiler": {
    "name": "solc",
    "version": "0.8.7+commit.e28d00a7.Emscripten.clang"
  },
  "schemaVersion": "3.4.16",
  "updatedAt": "2024-07-21T17:00:23.512Z",
  "networkType": "ethereum",
  "devdoc": {
    "kind": "dev",
    "methods": {},
    "version": 1
  },
  "userdoc": {
    "kind": "user",
    "methods": {},
    "version": 1
  }
}