{
  "contractName": "ContratoPayable",
  "abi": [
    {
      "inputs": [],
      "stateMutability": "nonpayable",
      "type": "constructor"
    },
    {
      "inputs": [],
      "name": "enderecoAnterior",
      "outputs": [
        {
          "internalType": "address",
          "name": "",
          "type": "address"
        }
      ],
      "stateMutability": "view",
      "type": "function"
    },
    {
      "inputs": [],
      "name": "recebeDinheiro",
      "outputs": [],
      "stateMutability": "payable",
      "type": "function"
    }
  ],
  "bytecode": "0x608060405234801561001057600080fd5b50336000806101000a81548173ffffffffffffffffffffffffffffffffffffffff021916908373ffffffffffffffffffffffffffffffffffffffff1602179055506101c2806100606000396000f3fe6080604052600436106100295760003560e01c8063e793e3ec1461002e578063fce3c23814610059575b600080fd5b34801561003a57600080fd5b50610043610063565b604051610050919061013f565b60405180910390f35b610061610087565b005b60008054906101000a900473ffffffffffffffffffffffffffffffffffffffff1681565b60008054906101000a900473ffffffffffffffffffffffffffffffffffffffff1673ffffffffffffffffffffffffffffffffffffffff166108fc349081150290604051600060405180830381858888f193505050501580156100ed573d6000803e3d6000fd5b50336000806101000a81548173ffffffffffffffffffffffffffffffffffffffff021916908373ffffffffffffffffffffffffffffffffffffffff160217905550565b6101398161015a565b82525050565b60006020820190506101546000830184610130565b92915050565b60006101658261016c565b9050919050565b600073ffffffffffffffffffffffffffffffffffffffff8216905091905056fea2646970667358221220f53d8929ea1ef261ee6dbecbb08b76473e5eaf3e28aa645e27cdb98cdf3dabeb64736f6c63430008070033",
  "immutableReferences": {},
  "source": "// SPDX-License-Identifier: MIT\r\npragma solidity ^0.8.7;\r\n\r\ncontract ContratoPayable{\r\n\r\n    address public enderecoAnterior;\r\n    \r\n    constructor(){\r\n        //variavel setada no construtor por quem gerou o contrato\r\n        enderecoAnterior = msg.sender;\r\n    }\r\n    function recebeDinheiro() public payable { \r\n        //enderecoAnterior.transfer(msg.value);\r\n         payable(enderecoAnterior).transfer(msg.value);\r\n         enderecoAnterior = msg.sender;\r\n    }\r\n}",
  "sourcePath": "C:\\Users\\Matheus\\Truffle\\Payable\\contracts\\Payable.sol",
  "compiler": {
    "name": "solc",
    "version": "0.8.7+commit.e28d00a7.Emscripten.clang"
  },
  "schemaVersion": "3.4.16",
  "updatedAt": "2024-07-28T13:46:13.672Z",
  "devdoc": {
    "kind": "dev",
    "methods": {},
    "version": 1
  },
  "userdoc": {
    "kind": "user",
    "methods": {},
    "version": 1
  }
}